:100000000C943B000C944D000C944D000C944D004E
:100010000C944D000C944D000C944D000C944D002C
:100020000C944D000C944D000C944D000C944D001C
:100030000C944D000C944D000C944D000C944D000C
:100040000C944D000C94B6000C9455010C944D008A
:100050000C944D000C944D000C944D000C944D00EC
:100060000C944D000C944D0018011F012601300125
:100070003A0144014E0111241FBECFEFD8E0DEBF8C
:10008000CDBF21E0A0E0B1E001C01D92A734B207CE
:10009000E1F70E9488000C9492010C94000080E427
:1000A00080937C0086E880937A000895ECE7F0E086
:1000B0009081907F8F70892B8083EAE7F0E08081C8
:1000C0008064808380917A0086FDFCCF80917800E7
:1000D0009091790008958FEF8AB91BB884B183603D
:1000E00084B985B18C7F85B908959BB1282F30E004
:1000F000220F331F220F331F9370292B2BB995B179
:100100009C7F8295869586958370892B85B9089505
:100110000E946B000E944F0020E040E060E080E41D
:100120000E94E900789481E00E9456009695879598
:10013000969587958093040182E00E9456009695DB
:100140008795969587958093030180910101882377
:1001500019F0813031F0E7CF809103010E947500E2
:10016000E2CF809102010E947500DDCF1F920F92B5
:100170000FB60F9211248F939F938EB5909100012B
:10018000913031F480930201109200011EBC1AC01C
:10019000813331F4809104018EBD1092010112C0AF
:1001A000823331F4809103018EBD109201010AC0A7
:1001B000833339F481E080930001809301011EBCF8
:1001C00001C01EBC9F918F910F900FBE0F901F908A
:1001D0001895E82FE071F0E0309751F094B19C62EF
:1001E00094B994B19F7E94B995B1946095B906C0C5
:1001F00094B1906194B994B1937D94B9462B242B1A
:10020000206C2CBDEF2B21F09CB590619CBD03C0F0
:100210009CB59F7E9CBDE82FE7708E2F90E08730C5
:10022000910508F041C0FC01EC5CFF4F0C948C017F
:100230008CB58C7F8CBD8DB581608DBD08958CB5DE
:100240008C7F8CBD8DB58E7F8DBD08958CB5816002
:100250008CBD8CB58D7F8CBD8DB581608DBD0895B5
:100260008CB581608CBD8CB58D7F8CBD8DB58E7F3E
:100270008DBD08958CB58E7F8CBD8CB582608CBD94
:100280008DB581608DBD08958CB58E7F8CBD8CB58C
:1002900082608CBD8DB58E7F8DBD08958CB58360D9
:1002A0008CBD8DB58E7F8DBD08951F920F920FB6B8
:1002B0000F9211248F939F93EF93FF938091C60029
:1002C0009091050191111FC08A3011F08D3061F4B9
:1002D000E0910601F0E0E95FFE4F108281E080933B
:1002E0000501109206010FC0909106019F3358F44A
:1002F000E0910601F0E0E95FFE4F80838091060106
:100300008F5F80930601FF91EF919F918F910F90E6
:100310000FBE0F901F901895EE0FFF1F0590F491E0
:08032000E02D0994F894FFCFD1
:00000001FF
