S01800004544322D4C61626F7261746F72696F332E7372656373
S11300000C943B000C944D000C944D000C944D004A
S11300100C944D000C944D000C944D000C944D0028
S11300200C944D000C944D000C944D000C944D0018
S11300300C944D000C944D000C944D000C944D0008
S11300400C944D000C94A6000C9457010C944D0094
S11300500C944D000C944D000C944D000C944D00E8
S11300600C944D000C944D001A0121012801320119
S11300703C014601500111241FBECFEFD8E0DEBF82
S1130080CDBF21E0A0E0B1E001C01D92A634B207CB
S1130090E1F70E9488000C9494010C94000080E421
S11300A080937C0086E880937A000895ECE7F0E082
S11300B09081907F8F70892B8083EAE7F0E08081C4
S11300C08064808380917A0086FDFCCF80917800E3
S11300D09091790008958FEF8AB91BB884B1836039
S11300E084B985B18C7F85B908959BB1282F30E000
S11300F0220F331F220F331F9370292B2BB995B175
S11301009C7F8295869586958370892B85B9089501
S11301100E946B000E944F0020E040E060E080E419
S11301200E94EB00789481E00E9456009695879592
S1130130969587958093030182E00E9456009695D8
S113014087959695879580930201EDCF1F920F9224
S11301500FB60F9211242F933F934F935F936F9396
S11301607F938F939F93AF93BF93EF93FF938EB53A
S113017090910101913051F480930001809100012C
S11301800E947500109201011EBC14C0813321F439
S1130190809103018EBD0EC0823321F4809102014F
S11301A08EBD08C0833329F481E0809301011EBC15
S11301B001C01EBCFF91EF91BF91AF919F918F91B0
S11301C07F916F915F914F913F912F910F900FBE4F
S11301D00F901F901895E82FE071F0E0309751F0E0
S11301E094B19C6294B994B19F7E94B995B1946092
S11301F095B906C094B1906194B994B1937D94B9C2
S1130200462B242B206C2CBDEF2B21F09CB5906148
S11302109CBD03C09CB59F7E9CBDE82FE7708E2FCC
S113022090E08730910508F041C0FC01EC5CFF4F81
S11302300C948E018CB58C7F8CBD8DB581608DBD89
S113024008958CB58C7F8CBD8DB58E7F8DBD089542
S11302508CB581608CBD8CB58D7F8CBD8DB5816076
S11302608DBD08958CB581608CBD8CB58D7F8CBDA2
S11302708DB58E7F8DBD08958CB58E7F8CBD8CB56C
S113028082608CBD8DB581608DBD08958CB58E7FE7
S11302908CBD8CB582608CBD8DB58E7F8DBD08956F
S11302A08CB583608CBD8DB58E7F8DBD08951F92F6
S11302B00F920FB60F9211248F939F93EF93FF9396
S11302C08091C6009091040191111FC08A3011F0F1
S11302D08D3061F4E0910501F0E0EA5FFE4F108299
S11302E081E080930401109205010FC090910501F3
S11302F09F3358F4E0910501F0E0EA5FFE4F8083FC
S1130300809105018F5F80930501FF91EF919F918B
S11303108F910F900FBE0F901F901895EE0FFF1F37
S10F03200590F491E02D0994F894FFCFAF
S9030000FC
