:100000000C943B000C9458000C9458000C9458002D
:100010000C9458000C9458000C9458000C94580000
:100020000C9458000C9458000C9458000C945800F0
:100030000C9458000C9458000C9458000C945800E0
:100040000C9458000C9458000C94D3010C94580054
:100050000C9458000C9458000C9458000C945800C0
:100060000C9458000C945800910198019F01A9012B
:10007000B301BD01C70111241FBECFEFD8E0DEBF21
:10008000CDBF11E0A0E0B1E0E8ECF5E002C00590E2
:100090000D92AE33B107D9F721E0AEE3B1E001C074
:1000A0001D92AB3AB207E1F70E94F3000C94E20212
:1000B0000C9400008FEF8AB91BB884B1836084B9B7
:1000C00085B18C7F85B985B1846085B908958F929B
:1000D0009F92AF92BF92CF92DF92EF92FF92CF9317
:1000E000DF93282F30E0A8E8B3E10E949E026B0165
:1000F0007C012FEF33E040E050E00E94760249019E
:100100005A01C701B60128E13CE94FE050E00E94E6
:100110007602F22EC501B40128EE33E040E050E053
:100120000E9476022AE030E040E050E00E94760231
:10013000C22F8F2D90E00E94300280E091E00E945B
:100140004A02CA3020F482E091E00E944A028C2FD9
:1001500090E00E94300284E091E00E941D02DF9155
:10016000CF91FF90EF90DF90CF90BF90AF909F9096
:100170008F9008959BB1282F30E0220F331F220F5C
:10018000331F9370292B2BB995B19C7F829586954F
:1001900086958370892B85B90895CF93DF93D82FE7
:1001A000C62F0E9457028823D9F083E891E00E946D
:1001B0005A0280918301803298F0813341F486E0C5
:1001C00091E00E944A028D2F0E94670009C082338D
:1001D00039F48FE091E00E944A028C2F0E94670060
:1001E000DF91CF9108950E945A000E940A0220E0F8
:1001F00040E060E083E50E946201789488E191E04C
:100200000E941D0284E291E00E941D0285B18B7F55
:1002100085B981E30E94CE0187EC90E00197F1F768
:1002200000C0000080E00E94CE018EB580934001A6
:1002300085B1846085B98FE39CE90197F1F700C02F
:10024000000085B18B7F85B982E30E94CE0187ECE7
:1002500090E00197F1F700C0000080E00E94CE011D
:100260008EB580933F0185B1846085B980913E0150
:100270008F5F80933E0185B18B7F85B983E30E94B8
:10028000CE0187EC90E00197F1F700C0000080916B
:100290003E010E94CE0185B1846085B980913E0106
:1002A0000E94BA0060913F01809140010E94CD0000
:1002B0009FEF21EE84E0915020408040E1F700C0A4
:1002C0000000A4CFE82FE071F0E0309751F094B136
:1002D0009C6294B994B19F7E94B995B1946095B99C
:1002E00006C094B1906194B994B1937D94B9462BB2
:1002F000242B20642CBDEF2B21F09CB590619CBD7C
:1003000003C09CB59F7E9CBDE82FE7708E2F90E0C8
:100310008730910508F041C0FC01EC5CFF4F0C9464
:1003200098028CB58C7F8CBD8DB581608DBD089594
:100330008CB58C7F8CBD8DB58E7F8DBD08958CB5B1
:1003400081608CBD8CB58D7F8CBD8DB581608DBD80
:1003500008958CB581608CBD8CB58D7F8CBD8DB5BD
:100360008E7F8DBD08958CB58E7F8CBD8CB58260DF
:100370008CBD8DB581608DBD08958CB58E7F8CBD93
:100380008CB582608CBD8DB58E7F8DBD08958CB58A
:1003900083608CBD8DB58E7F8DBD08958EBD0DB4EF
:1003A00007FEFDCF08951F920F920FB60F921124F2
:1003B0008F939F93EF93FF938091C600909141019B
:1003C00091111FC08A3011F08D3061F4E09142012B
:1003D000F0E0ED5BFE4F108281E0809341011092CE
:1003E00042010FC0909142019F3358F4E0914201C5
:1003F000F0E0ED5BFE4F8083809142018F5F809340
:100400004201FF91EF919F918F910F900FBE0F903E
:100410001F9018951092C50087E68093C40088E964
:100420008093C10086E08093C20008959091C0003F
:1004300095FFFCCF8093C6000895CF93DF93EC0126
:1004400003C021960E94160288818111FACF8DE0A7
:100450000E9416028AE00E941602DF91CF91089551
:10046000CF93DF9300D000D000D0CDB7DEB74AE005
:10047000BE016F5F7F4F0E94AD02CE0101960E94C8
:100480001D0226960FB6F894DEBF0FBECDBFDF91DA
:10049000CF910895CF93DF93EC0103C021960E9482
:1004A000160288818111FACFDF91CF910895809152
:1004B00041010895BC0190E009C0FB01E90FF11D65
:1004C000D901AD5BBE4F2C9120839F5F292F30E077
:1004D000F901ED5BFE4F40814111EFCFFB01E90FC8
:1004E000F11D80E38083109241010895A1E21A2E4C
:1004F000AA1BBB1BFD010DC0AA1FBB1FEE1FFF1FC8
:10050000A217B307E407F50720F0A21BB30BE40B17
:10051000F50B661F771F881F991F1A9469F760955E
:100520007095809590959B01AC01BD01CF01089518
:10053000EE0FFF1F0590F491E02D0994A29FB001EA
:10054000B39FC001A39F700D811D1124911DB29F07
:10055000700D811D1124911D0895BB274A3031F47F
:10056000992322F4BDE2909581959F4F0C94B90296
:10057000BB27FB015527AA27880F991FAA1FA4177D
:1005800010F0A41B83955051B9F7A05DAA3308F071
:10059000A95DA193009779F7B111B1931192CB01A5
:1005A0000C94D202DC01FC01672F71917723E1F7F3
:1005B000329704C07C916D9370836291AE17BF0730
:0805C000C8F30895F894FFCF81
:1005C8002E0030005600506F746520313A200050DC
:1005D8006F746520323A20004269656E76656E69EF
:1005E800646F0A0053697374656D61204D616573AA
:0E05F80074726F20496E69636961646F0A0056
:00000001FF
