:100000000C943B000C9458000C9458000C9458002D
:100010000C9458000C9458000C9458000C94580000
:100020000C9458000C9458000C9458000C945800F0
:100030000C9458000C9458000C9458000C945800E0
:100040000C9458000C9458000C94E8010C9458003F
:100050000C9458000C9458000C9458000C945800C0
:100060000C9458000C945800A601AD01B401BE01D7
:10007000C801D201DC0111241FBECFEFD8E0DEBFE2
:10008000CDBF11E0A0E0B1E0EEE3F6E002C00590E4
:100090000D92A037B107D9F721E0A0E7B1E001C088
:1000A0001D92AE3DB207E1F70E94DD000C941D03E6
:1000B0000C9400008FEF8AB91BB884B1836084B9B7
:1000C00085B18C7F85B985B1846085B908958F929B
:1000D0009F92AF92BF92CF92DF92EF92FF92CF9317
:1000E000DF93282F30E0A8E8B3E10E94B3026B0150
:1000F0007C012FEF30E040E050E00E948B0249018C
:100100005A01C701B60128E134EE43E050E00E94F5
:100110008B02F22EC501B40128EE33E040E050E03E
:100120000E948B022AE030E040E050E00E948B0207
:10013000C22F8F2D90E00E94450280E091E00E9446
:100140005F02CA3020F482E091E00E945F028C2FAF
:1001500090E00E94450284E091E00E943202DF912B
:10016000CF91FF90EF90DF90CF90BF90AF909F9096
:100170008F9008959BB1282F30E0220F331F220F5C
:10018000331F9370292B2BB995B19C7F829586954F
:1001900086958370892B85B9089595B19B7F95B914
:1001A0000E94E30180EA8A95F1F780E00E94E30172
:1001B0008EB595B1946095B908950E945A000E9439
:1001C0001F0220E040E060E083E50E947701789420
:1001D00087E091E00E94320289E191E00E943202C0
:1001E00081E30E94CD008093730187EC90E001973A
:1001F000F1F700C0000082E30E94CD0080937201FD
:1002000087EC90E00197F1F700C000008091700149
:1002100081110EC085B18B7F85B984E30E94E30113
:1002200085B1846085B9809173010E94BA0014C0C1
:1002300085B18B7F85B983E30E94E30190EA9A95AB
:10024000F1F7809171010E94E30185B1846085B965
:10025000809171010E94BA000E946C028823E9F12A
:1002600086EB91E00E946F028091B6018032A8F186
:100270008D3699F481E090917001911180E0809326
:100280007001882329F084E391E00E94320225C0A6
:1002900089E491E00E94320220C090917001911196
:1002A00016C0813349F48DE591E00E945F02809190
:1002B00073010E94670011C0823379F486E691E0F1
:1002C0000E945F02809172010E94670006C086EB67
:1002D00091E00E94C202809371012FEF80E792E0CB
:1002E000215080409040E1F700C0000079CFE82F16
:1002F000E071F0E0309751F094B19C6294B994B100
:100300009F7E94B995B1946095B906C094B19061FF
:1003100094B994B1937D94B9462B242B20642CBDC1
:10032000EF2B21F09CB590619CBD03C09CB59F7ED6
:100330009CBDE82FE7708E2F90E08730910508F084
:1003400041C0FC01EC5CFF4F0C94AD028CB58C7F7E
:100350008CBD8DB581608DBD08958CB58C7F8CBDB5
:100360008DB58E7F8DBD08958CB581608CBD8CB5AB
:100370008D7F8CBD8DB581608DBD08958CB58160FC
:100380008CBD8CB58D7F8CBD8DB58E7F8DBD089558
:100390008CB58E7F8CBD8CB582608CBD8DB5816037
:1003A0008DBD08958CB58E7F8CBD8CB582608CBD63
:1003B0008DB58E7F8DBD08958CB583608CBD8DB558
:1003C0008E7F8DBD08958EBD0DB407FEFDCF0895BF
:1003D0001F920F920FB60F9211248F939F93EF935A
:1003E000FF938091C6009091740191111FC08A30D3
:1003F00011F08D3061F4E0917501F0E0EA58FE4FA4
:10040000108281E080937401109275010FC0909169
:1004100075019F3358F4E0917501F0E0EA58FE4F02
:100420008083809175018F5F80937501FF91EF91BB
:100430009F918F910F900FBE0F901F901895109263
:10044000C50087E68093C40088E98093C10086E0F8
:100450008093C20008959091C00095FFFCCF8093D7
:10046000C6000895CF93DF93EC0103C021960E944C
:100470002B0288818111FACF8DE00E942B028AE045
:100480000E942B02DF91CF910895CF93DF9300D08C
:1004900000D000D0CDB7DEB74AE0BE016F5F7F4F1E
:1004A0000E94E002CE0101960E94320226960FB60B
:1004B000F894DEBF0FBECDBFDF91CF910895CF93EB
:1004C000DF93EC0103C021960E942B0288818111E9
:1004D000FACFDF91CF910895809174010895BC0106
:1004E00090E009C0FB01E90FF11DD901AA58BE4FE8
:1004F0002C9120839F5F292F30E0F901EA58FE4FAD
:1005000040814111EFCFFB01E90FF11D80E38083B2
:10051000109274010895A1E21A2EAA1BBB1BFD01C3
:100520000DC0AA1FBB1FEE1FFF1FA217B307E407D2
:10053000F50720F0A21BB30BE40BF50B661F771F2A
:10054000881F991F1A9469F760957095809590950A
:100550009B01AC01BD01CF010895EE0FFF1F059077
:10056000F491E02D0994A29FB001B39FC001A39F15
:10057000700D811D1124911DB29F700D811D1124DC
:10058000911D0895FC0188279927E8942191203234
:10059000E9F3293010F02E30C8F32B3241F02D3220
:1005A00039F4689404C00E94EB02820F911D2191DE
:1005B00020532A30C0F31EF4909581959F4F0895E3
:1005C000BB274A3031F4992322F4BDE290958195FE
:1005D0009F4F0C94F4027AE0979F902D879F802D77
:1005E000910D11240895BB27FB015527AA27880FD9
:1005F000991FAA1FA41710F0A41B83955051B9F797
:10060000A05DAA3308F0A95DA193009779F7B11115
:10061000B1931192CB010C940D03DC01FC01672F07
:1006200071917723E1F7329704C07C916D937083C9
:0E0630006291AE17BF07C8F30895F894FFCF8C
:10063E002E003000560A0053697374656D612049AF
:10064E006E69636961646F0A0055736520276D27B3
:10065E0020706172612063616D62696172206D6FDD
:10066E00646F0A004D4F444F3A20457363726962BE
:10067E006972204C4544730A004D4F444F3A205640
:10068E0065722053656E736F7265730A00506F74D6
:10069E006520313A2000506F746520323A200000F8
:00000001FF
