S01800004544322D4C61626F7261746F72696F332E7372656373
S11300000C943B000C9458000C9458000C94580029
S11300100C9458000C9458000C9458000C945800FC
S11300200C9458000C9458000C9458000C945800EC
S11300300C9458000C9458000C9458000C945800DC
S11300400C9458000C9458000C9407020C9458001B
S11300500C9458000C9458000C9458000C945800BC
S11300600C9458000C945800C501CC01D301DD0157
S1130070E701F101FB0111241FBECFEFD8E0DEBF81
S1130080CDBF11E0A0E0B1E0ECE7F6E002C00590DE
S11300900D92AE3AB107D9F722E0AEEAB1E001C061
S11300A01D92AC31B207E1F70E9414010C943C0399
S11300B00C9400008FEF8AB91BB884B1836084B9B3
S11300C085B18C7F85B985B1846085B908958F9297
S11300D09F92AF92BF92CF92DF92EF92FF92CF9313
S11300E0DF93282F30E0A8E8B3E10E94D2026B012D
S11300F07C012FEF33E040E050E00E94AA02490166
S11301005A01C701B60128E13CE94FE050E00E94E2
S1130110AA02F22EC501B40128EE33E040E050E01B
S11301200E94AA022AE030E040E050E00E94AA02C5
S1130130C22F8F2D90E00E94640280E091E00E9423
S11301407E02CA3020F482E091E00E947E028C2F6D
S113015090E00E94640284E091E00E945102DF91E9
S1130160CF91FF90EF90DF90CF90BF90AF909F9092
S11301708F9008959BB1282F30E0220F331F220F58
S1130180331F9370292B2BB995B19C7F829586954B
S113019086958370892B85B90895CF93DF93D82FE3
S11301A0C62F0E948B028823E1F184EF91E00E9424
S11301B08E0284EF91E00E94E1028093AF0180916E
S11301C0F4018D3699F481E09091AE01911180E0B3
S11301D08093AE01813029F486E091E00E945102BF
S11301E020C082E291E00E9451021BC0813361F47D
S11301F09091F501903240F488E391E00E947E02F0
S11302008D2F0E9467000DC0823359F48091F5014F
S1130210803238F481E491E00E947E028C2F0E94A7
S11302206700DF91CF9108950E945A000E943E0218
S113023020E040E060E083E50E94960178948AE43F
S113024091E00E94510286E591E00E94510287E606
S113025091E00E94510286E791E00E94510285E8F4
S113026091E00E9451026091B0018091B1010E941D
S1130270CD008091AE01882319F08130B1F14CC0DA
S113028085B18B7F85B981E30E94020287EC90E0FF
S11302900197F1F700C0000080E00E9402028EB5D1
S11302A08093B10185B1846085B98FE39CE901979E
S11302B0F1F700C0000085B18B7F85B982E30E940D
S11302C0020287EC90E00197F1F700C0000080E0A3
S11302D00E9402028EB58093B00185B1846085B915
S11302E08091B1010E94BA0017C085B18B7F85B996
S11302F083E30E94020287EC90E00197F1F700C0CB
S113030000008091AF010E94020285B1846085B92A
S11303108091AF010E94BA009FEF21EE84E09150DA
S113032020408040E1F700C000009DCFE82FE0713D
S1130330F0E0309751F094B19C6294B994B19F7EEF
S113034094B995B1946095B906C094B1906194B98B
S113035094B1937D94B9462B242B20642CBDEF2BB0
S113036021F09CB590619CBD03C09CB59F7E9CBD53
S1130370E82FE7708E2F90E08730910508F041C098
S1130380FC01EC5CFF4F0C94CC028CB58C7F8CBDD3
S11303908DB581608DBD08958CB58C7F8CBD8DB578
S11303A08E7F8DBD08958CB581608CBD8CB58D7F9D
S11303B08CBD8DB581608DBD08958CB581608CBD7B
S11303C08CB58D7F8CBD8DB58E7F8DBD08958CB51C
S11303D08E7F8CBD8CB582608CBD8DB581608DBDEA
S11303E008958CB58E7F8CBD8CB582608CBD8DB527
S11303F08E7F8DBD08958CB583608CBD8DB58E7F49
S11304008DBD08958EBD0DB407FEFDCF08951F92D6
S11304100F920FB60F9211248F939F93EF93FF9334
S11304208091C6009091B20191111FC08A3011F0E1
S11304308D3061F4E091B301F0E0EC54FE4F108292
S113044081E08093B2011092B3010FC09091B30187
S11304509F3358F4E091B301F0E0EC54FE4F8083F5
S11304608091B3018F5F8093B301FF91EF919F91CE
S11304708F910F900FBE0F901F9018951092C5008A
S113048087E68093C40088E98093C10086E0809366
S1130490C20008959091C00095FFFCCF8093C600E0
S11304A00895CF93DF93EC0103C021960E944A0282
S11304B088818111FACF8DE00E944A028AE00E946D
S11304C04A02DF91CF910895CF93DF9300D000D0FB
S11304D000D0CDB7DEB74AE0BE016F5F7F4F0E9408
S11304E0FF02CE0101960E94510226960FB6F8949F
S11304F0DEBF0FBECDBFDF91CF910895CF93DF93C1
S1130500EC0103C021960E944A0288818111FACF2E
S1130510DF91CF9108958091B2010895BC0190E0DC
S113052009C0FB01E90FF11DD901AC54BE4F2C9158
S113053020839F5F292F30E0F901EC54FE4F408166
S11305404111EFCFFB01E90FF11D80E3808310928D
S1130550B2010895A1E21A2EAA1BBB1BFD010DC016
S1130560AA1FBB1FEE1FFF1FA217B307E407F5075F
S113057020F0A21BB30BE40BF50B661F771F881F3B
S1130580991F1A9469F760957095809590959B01D1
S1130590AC01BD01CF010895EE0FFF1F0590F4914A
S11305A0E02D0994A29FB001B39FC001A39F700DD9
S11305B0811D1124911DB29F700D811D1124911D67
S11305C00895FC0188279927E89421912032E9F3C2
S11305D0293010F02E30C8F32B3241F02D3239F48B
S11305E0689404C00E940A03820F911D2191205334
S11305F02A30C0F31EF4909581959F4F0895BB2730
S11306004A3031F4992322F4BDE2909581959F4FAD
S11306100C9413037AE0979F902D879F802D910D62
S113062011240895BB27FB015527AA27880F991F7A
S1130630AA1FA41710F0A41B83955051B9F7A05D0D
S1130640AA3308F0A95DA193009779F7B111B1938A
S11306501192CB010C942C03DC01FC01672F7191E6
S11306607723E1F7329704C07C916D937083629194
S10F0670AE17BF07C8F30895F894FFCF3D
S113067C2E00300056000A4D4F444F3A2045736308
S113068C72696269722056616C6F72204C454473B6
S113069C0A000A4D4F444F3A204C6565722053654D
S11306AC6E736F7265730A00506F746520313A2053
S11306BC00506F746520323A20004269656E76658D
S11306CC6E69646F0A006D3A2043616D62696172F0
S11306DC204D6F646F0A00313A2056657220506FBA
S11306EC746520310A00323A2056657220506F74BA
S11306FC6520320A004573637269626120756E204D
S113070C6E756D65726F2028302D32353529207049
S111071C617261206C6F73204C4544730A00B7
S9030000FC
